{
  "_format": "hh-sol-artifact-1",
  "contractName": "NftMarketplace",
  "sourceName": "contracts/NftMarketplace.sol",
  "abi": [
    {
      "inputs": [
        {
          "internalType": "address",
          "name": "nftAddress",
          "type": "address"
        },
        {
          "internalType": "uint256",
          "name": "tokenId",
          "type": "uint256"
        }
      ],
      "name": "NFTMarketplace_AlreadListed",
      "type": "error"
    },
    {
      "inputs": [],
      "name": "NFTMarketplace_NotApprovedForMarketplace",
      "type": "error"
    },
    {
      "inputs": [],
      "name": "NFTMarketplace_NotOwner",
      "type": "error"
    },
    {
      "inputs": [],
      "name": "NFTMarketplace_PriceMustBeAboveZero",
      "type": "error"
    },
    {
      "anonymous": false,
      "inputs": [
        {
          "indexed": true,
          "internalType": "address",
          "name": "seller",
          "type": "address"
        },
        {
          "indexed": true,
          "internalType": "address",
          "name": "nftAddress",
          "type": "address"
        },
        {
          "indexed": true,
          "internalType": "uint256",
          "name": "tokenId",
          "type": "uint256"
        },
        {
          "indexed": false,
          "internalType": "uint256",
          "name": "price",
          "type": "uint256"
        }
      ],
      "name": "ItemListed",
      "type": "event"
    },
    {
      "inputs": [
        {
          "internalType": "address",
          "name": "nftAddress",
          "type": "address"
        },
        {
          "internalType": "uint256",
          "name": "tokenId",
          "type": "uint256"
        },
        {
          "internalType": "uint256",
          "name": "price",
          "type": "uint256"
        }
      ],
      "name": "listItem",
      "outputs": [],
      "stateMutability": "nonpayable",
      "type": "function"
    }
  ],
  "bytecode": "0x608060405234801561001057600080fd5b50610688806100206000396000f3fe608060405234801561001057600080fd5b506004361061002b5760003560e01c806389bfd38f14610030575b600080fd5b61004a6004803603810190610045919061052e565b61004c565b005b82823360008060008573ffffffffffffffffffffffffffffffffffffffff1673ffffffffffffffffffffffffffffffffffffffff1681526020019081526020016000206000848152602001908152602001600020604051806040016040529081600082015481526020016001820160009054906101000a900473ffffffffffffffffffffffffffffffffffffffff1673ffffffffffffffffffffffffffffffffffffffff1673ffffffffffffffffffffffffffffffffffffffff168152505090506000816000015111156101595783836040517f7d3c58e200000000000000000000000000000000000000000000000000000000815260040161015092919061059f565b60405180910390fd5b868633600083905060008173ffffffffffffffffffffffffffffffffffffffff16636352211e856040518263ffffffff1660e01b815260040161019c91906105c8565b60206040518083038186803b1580156101b457600080fd5b505afa1580156101c8573d6000803e3d6000fd5b505050506040513d601f19601f820116820180604052508101906101ec9190610501565b90508073ffffffffffffffffffffffffffffffffffffffff168373ffffffffffffffffffffffffffffffffffffffff1614610253576040517fa04f072600000000000000000000000000000000000000000000000000000000815260040160405180910390fd5b60008a1161028d576040517f3646701500000000000000000000000000000000000000000000000000000000815260040160405180910390fd5b60008c90503073ffffffffffffffffffffffffffffffffffffffff168173ffffffffffffffffffffffffffffffffffffffff1663081812fc8e6040518263ffffffff1660e01b81526004016102e291906105c8565b60206040518083038186803b1580156102fa57600080fd5b505afa15801561030e573d6000803e3d6000fd5b505050506040513d601f19601f820116820180604052508101906103329190610501565b73ffffffffffffffffffffffffffffffffffffffff161461037f576040517f5740a1c500000000000000000000000000000000000000000000000000000000815260040160405180910390fd5b60405180604001604052808c81526020013373ffffffffffffffffffffffffffffffffffffffff168152506000808f73ffffffffffffffffffffffffffffffffffffffff1673ffffffffffffffffffffffffffffffffffffffff16815260200190815260200160002060008e81526020019081526020016000206000820151816000015560208201518160010160006101000a81548173ffffffffffffffffffffffffffffffffffffffff021916908373ffffffffffffffffffffffffffffffffffffffff1602179055509050508b8d73ffffffffffffffffffffffffffffffffffffffff163373ffffffffffffffffffffffffffffffffffffffff167fd547e933094f12a9159076970143ebe73234e64480317844b0dcb36117116de48e6040516104ab91906105c8565b60405180910390a450505050505050505050505050565b6000813590506104d181610624565b92915050565b6000815190506104e681610624565b92915050565b6000813590506104fb8161063b565b92915050565b6000602082840312156105175761051661061f565b5b6000610525848285016104d7565b91505092915050565b6000806000606084860312156105475761054661061f565b5b6000610555868287016104c2565b9350506020610566868287016104ec565b9250506040610577868287016104ec565b9150509250925092565b61058a816105e3565b82525050565b61059981610615565b82525050565b60006040820190506105b46000830185610581565b6105c16020830184610590565b9392505050565b60006020820190506105dd6000830184610590565b92915050565b60006105ee826105f5565b9050919050565b600073ffffffffffffffffffffffffffffffffffffffff82169050919050565b6000819050919050565b600080fd5b61062d816105e3565b811461063857600080fd5b50565b61064481610615565b811461064f57600080fd5b5056fea26469706673582212201e1567c7973cb7a5363ded6c3cd3d5fc414652c3b2eb0b4001cc88df075ecaf364736f6c63430008070033",
  "linkReferences": {},
  "deployedLinkReferences": {}
}